{
  "contractName": "Betting",
  "abi": [
    {
      "constant": true,
      "inputs": [],
      "name": "gamblerB",
      "outputs": [
        {
          "name": "",
          "type": "address"
        }
      ],
      "payable": false,
      "stateMutability": "view",
      "type": "function"
    },
    {
      "constant": true,
      "inputs": [],
      "name": "gamblerA",
      "outputs": [
        {
          "name": "",
          "type": "address"
        }
      ],
      "payable": false,
      "stateMutability": "view",
      "type": "function"
    },
    {
      "constant": true,
      "inputs": [],
      "name": "oracle",
      "outputs": [
        {
          "name": "",
          "type": "address"
        }
      ],
      "payable": false,
      "stateMutability": "view",
      "type": "function"
    },
    {
      "constant": true,
      "inputs": [],
      "name": "owner",
      "outputs": [
        {
          "name": "",
          "type": "address"
        }
      ],
      "payable": false,
      "stateMutability": "view",
      "type": "function"
    },
    {
      "constant": true,
      "inputs": [
        {
          "name": "",
          "type": "uint256"
        }
      ],
      "name": "outcomes",
      "outputs": [
        {
          "name": "",
          "type": "uint256"
        }
      ],
      "payable": false,
      "stateMutability": "view",
      "type": "function"
    },
    {
      "inputs": [
        {
          "name": "_outcomes",
          "type": "uint256[]"
        }
      ],
      "payable": false,
      "stateMutability": "nonpayable",
      "type": "constructor"
    },
    {
      "payable": true,
      "stateMutability": "payable",
      "type": "fallback"
    },
    {
      "anonymous": false,
      "inputs": [
        {
          "indexed": false,
          "name": "gambler",
          "type": "address"
        }
      ],
      "name": "BetMade",
      "type": "event"
    },
    {
      "anonymous": false,
      "inputs": [],
      "name": "BetClosed",
      "type": "event"
    },
    {
      "constant": false,
      "inputs": [
        {
          "name": "_oracle",
          "type": "address"
        }
      ],
      "name": "chooseOracle",
      "outputs": [
        {
          "name": "",
          "type": "address"
        }
      ],
      "payable": false,
      "stateMutability": "nonpayable",
      "type": "function"
    },
    {
      "constant": false,
      "inputs": [
        {
          "name": "_outcome",
          "type": "uint256"
        }
      ],
      "name": "makeBet",
      "outputs": [
        {
          "name": "",
          "type": "bool"
        }
      ],
      "payable": true,
      "stateMutability": "payable",
      "type": "function"
    },
    {
      "constant": false,
      "inputs": [
        {
          "name": "_outcome",
          "type": "uint256"
        }
      ],
      "name": "makeDecision",
      "outputs": [],
      "payable": false,
      "stateMutability": "nonpayable",
      "type": "function"
    },
    {
      "constant": false,
      "inputs": [
        {
          "name": "withdrawAmount",
          "type": "uint256"
        }
      ],
      "name": "withdraw",
      "outputs": [
        {
          "name": "",
          "type": "uint256"
        }
      ],
      "payable": false,
      "stateMutability": "nonpayable",
      "type": "function"
    },
    {
      "constant": true,
      "inputs": [
        {
          "name": "outcome",
          "type": "uint256"
        }
      ],
      "name": "checkOutcomes",
      "outputs": [
        {
          "name": "",
          "type": "uint256"
        }
      ],
      "payable": false,
      "stateMutability": "view",
      "type": "function"
    },
    {
      "constant": true,
      "inputs": [],
      "name": "checkWinnings",
      "outputs": [
        {
          "name": "",
          "type": "uint256"
        }
      ],
      "payable": false,
      "stateMutability": "view",
      "type": "function"
    },
    {
      "constant": false,
      "inputs": [],
      "name": "contractReset",
      "outputs": [],
      "payable": false,
      "stateMutability": "nonpayable",
      "type": "function"
    }
  ],
  "bytecode": "0x608060405234801561001057600080fd5b506040516115bd3803806115bd8339810180604052810190808051820192919050505060008090505b815181101561007e57818181518110151561005057fe5b9060200190602002015160066000838152602001908152602001600020819055508080600101915050610039565b336000806101000a81548173ffffffffffffffffffffffffffffffffffffffff021916908373ffffffffffffffffffffffffffffffffffffffff16021790555050506114ee806100cf6000396000f3006080604052600436106100ba576000357c0100000000000000000000000000000000000000000000000000000000900463ffffffff168063113023ca146100bf5780631def0573146101165780632e1a7d4d1461016d5780635ee715d6146101ae5780636d0b502f146101d9578063718cc7691461021a5780637dc0d1d01461025257806380c1367e146102a95780638da5cb5b146102d6578063a7a5ce881461032d578063d0aa7e2514610344578063eed2a147146103c7575b600080fd5b3480156100cb57600080fd5b506100d4610408565b604051808273ffffffffffffffffffffffffffffffffffffffff1673ffffffffffffffffffffffffffffffffffffffff16815260200191505060405180910390f35b34801561012257600080fd5b5061012b61042e565b604051808273ffffffffffffffffffffffffffffffffffffffff1673ffffffffffffffffffffffffffffffffffffffff16815260200191505060405180910390f35b34801561017957600080fd5b5061019860048036038101908080359060200190929190505050610454565b6040518082815260200191505060405180910390f35b3480156101ba57600080fd5b506101c3610578565b6040518082815260200191505060405180910390f35b3480156101e557600080fd5b50610204600480360381019080803590602001909291905050506105bf565b6040518082815260200191505060405180910390f35b610238600480360381019080803590602001909291905050506105dc565b604051808215151515815260200191505060405180910390f35b34801561025e57600080fd5b506102676109c4565b604051808273ffffffffffffffffffffffffffffffffffffffff1673ffffffffffffffffffffffffffffffffffffffff16815260200191505060405180910390f35b3480156102b557600080fd5b506102d4600480360381019080803590602001909291905050506109ea565b005b3480156102e257600080fd5b506102eb6111d2565b604051808273ffffffffffffffffffffffffffffffffffffffff1673ffffffffffffffffffffffffffffffffffffffff16815260200191505060405180910390f35b34801561033957600080fd5b506103426111f7565b005b34801561035057600080fd5b50610385600480360381019080803573ffffffffffffffffffffffffffffffffffffffff1690602001909291905050506113e7565b604051808273ffffffffffffffffffffffffffffffffffffffff1673ffffffffffffffffffffffffffffffffffffffff16815260200191505060405180910390f35b3480156103d357600080fd5b506103f2600480360381019080803590602001909291905050506114aa565b6040518082815260200191505060405180910390f35b600260009054906101000a900473ffffffffffffffffffffffffffffffffffffffff1681565b600160009054906101000a900473ffffffffffffffffffffffffffffffffffffffff1681565b600081600560003373ffffffffffffffffffffffffffffffffffffffff1673ffffffffffffffffffffffffffffffffffffffff168152602001908152602001600020541115156104a357600080fd5b3373ffffffffffffffffffffffffffffffffffffffff166108fc839081150290604051600060405180830381858888f193505050501580156104e9573d6000803e3d6000fd5b5081600003600560003373ffffffffffffffffffffffffffffffffffffffff1673ffffffffffffffffffffffffffffffffffffffff16815260200190815260200160002081905550600560003373ffffffffffffffffffffffffffffffffffffffff1673ffffffffffffffffffffffffffffffffffffffff168152602001908152602001600020549050919050565b6000600560003373ffffffffffffffffffffffffffffffffffffffff1673ffffffffffffffffffffffffffffffffffffffff16815260200190815260200160002054905090565b600060066000838152602001908152602001600020549050919050565b600080339050600360009054906101000a900473ffffffffffffffffffffffffffffffffffffffff1673ffffffffffffffffffffffffffffffffffffffff168173ffffffffffffffffffffffffffffffffffffffff161415801561068d57506000809054906101000a900473ffffffffffffffffffffffffffffffffffffffff1673ffffffffffffffffffffffffffffffffffffffff168173ffffffffffffffffffffffffffffffffffffffff1614155b151561069857600080fd5b600460008273ffffffffffffffffffffffffffffffffffffffff1673ffffffffffffffffffffffffffffffffffffffff16815260200190815260200160002060020160009054906101000a900460ff161515156106f457600080fd5b82600460008373ffffffffffffffffffffffffffffffffffffffff1673ffffffffffffffffffffffffffffffffffffffff1681526020019081526020016000206000018190555034600460008373ffffffffffffffffffffffffffffffffffffffff1673ffffffffffffffffffffffffffffffffffffffff168152602001908152602001600020600101819055506001600460008373ffffffffffffffffffffffffffffffffffffffff1673ffffffffffffffffffffffffffffffffffffffff16815260200190815260200160002060020160006101000a81548160ff0219169083151502179055507fdcd2da66e8984bfcbbe0c67e276d4409dc4f49b29be35637f00eb421e60c010f81604051808273ffffffffffffffffffffffffffffffffffffffff1673ffffffffffffffffffffffffffffffffffffffff16815260200191505060405180910390a160046000600160009054906101000a900473ffffffffffffffffffffffffffffffffffffffff1673ffffffffffffffffffffffffffffffffffffffff1673ffffffffffffffffffffffffffffffffffffffff16815260200190815260200160002060020160009054906101000a900460ff1615156108fe5780600160006101000a81548173ffffffffffffffffffffffffffffffffffffffff021916908373ffffffffffffffffffffffffffffffffffffffff16021790555061096c565b80600260006101000a81548173ffffffffffffffffffffffffffffffffffffffff021916908373ffffffffffffffffffffffffffffffffffffffff1602179055507f077212d4d7a1f32f5a1799a3b05e05b15f3ad33584b11615f0b68d9c4c03fd6260405160405180910390a15b600460008273ffffffffffffffffffffffffffffffffffffffff1673ffffffffffffffffffffffffffffffffffffffff16815260200190815260200160002060020160009054906101000a900460ff16915050919050565b600360009054906101000a900473ffffffffffffffffffffffffffffffffffffffff1681565b600080600360009054906101000a900473ffffffffffffffffffffffffffffffffffffffff1673ffffffffffffffffffffffffffffffffffffffff163373ffffffffffffffffffffffffffffffffffffffff1614156111cd5782600060066000838152602001908152602001600020541415156111cb5760046000600160009054906101000a900473ffffffffffffffffffffffffffffffffffffffff1673ffffffffffffffffffffffffffffffffffffffff1673ffffffffffffffffffffffffffffffffffffffff16815260200190815260200160002060020160009054906101000a900460ff168015610b4d575060046000600260009054906101000a900473ffffffffffffffffffffffffffffffffffffffff1673ffffffffffffffffffffffffffffffffffffffff1673ffffffffffffffffffffffffffffffffffffffff16815260200190815260200160002060020160009054906101000a900460ff165b1515610b5857600080fd5b8360046000600360009054906101000a900473ffffffffffffffffffffffffffffffffffffffff1673ffffffffffffffffffffffffffffffffffffffff1673ffffffffffffffffffffffffffffffffffffffff1681526020019081526020016000206000018190555060046000600160009054906101000a900473ffffffffffffffffffffffffffffffffffffffff1673ffffffffffffffffffffffffffffffffffffffff1673ffffffffffffffffffffffffffffffffffffffff16815260200190815260200160002060010154925060046000600260009054906101000a900473ffffffffffffffffffffffffffffffffffffffff1673ffffffffffffffffffffffffffffffffffffffff1673ffffffffffffffffffffffffffffffffffffffff16815260200190815260200160002060010154915060046000600260009054906101000a900473ffffffffffffffffffffffffffffffffffffffff1673ffffffffffffffffffffffffffffffffffffffff1673ffffffffffffffffffffffffffffffffffffffff1681526020019081526020016000206000015460046000600160009054906101000a900473ffffffffffffffffffffffffffffffffffffffff1673ffffffffffffffffffffffffffffffffffffffff1673ffffffffffffffffffffffffffffffffffffffff168152602001908152602001600020600001541415610e3657600160009054906101000a900473ffffffffffffffffffffffffffffffffffffffff1673ffffffffffffffffffffffffffffffffffffffff166108fc849081150290604051600060405180830381858888f19350505050158015610dc7573d6000803e3d6000fd5b50600260009054906101000a900473ffffffffffffffffffffffffffffffffffffffff1673ffffffffffffffffffffffffffffffffffffffff166108fc839081150290604051600060405180830381858888f19350505050158015610e30573d6000803e3d6000fd5b506111ca565b600660008581526020019081526020016000205460046000600160009054906101000a900473ffffffffffffffffffffffffffffffffffffffff1673ffffffffffffffffffffffffffffffffffffffff1673ffffffffffffffffffffffffffffffffffffffff16815260200190815260200160002060000154141561107357600660008581526020019081526020016000205460046000600260009054906101000a900473ffffffffffffffffffffffffffffffffffffffff1673ffffffffffffffffffffffffffffffffffffffff1673ffffffffffffffffffffffffffffffffffffffff168152602001908152602001600020600001541415611005578260056000600160009054906101000a900473ffffffffffffffffffffffffffffffffffffffff1673ffffffffffffffffffffffffffffffffffffffff1673ffffffffffffffffffffffffffffffffffffffff168152602001908152602001600020819055508160056000600260009054906101000a900473ffffffffffffffffffffffffffffffffffffffff1673ffffffffffffffffffffffffffffffffffffffff1673ffffffffffffffffffffffffffffffffffffffff1681526020019081526020016000208190555061106e565b81830160056000600160009054906101000a900473ffffffffffffffffffffffffffffffffffffffff1673ffffffffffffffffffffffffffffffffffffffff1673ffffffffffffffffffffffffffffffffffffffff168152602001908152602001600020819055505b6111c9565b600660008581526020019081526020016000205460046000600260009054906101000a900473ffffffffffffffffffffffffffffffffffffffff1673ffffffffffffffffffffffffffffffffffffffff1673ffffffffffffffffffffffffffffffffffffffff16815260200190815260200160002060000154141561115f5781830160056000600260009054906101000a900473ffffffffffffffffffffffffffffffffffffffff1673ffffffffffffffffffffffffffffffffffffffff1673ffffffffffffffffffffffffffffffffffffffff168152602001908152602001600020819055506111c8565b81830160056000600360009054906101000a900473ffffffffffffffffffffffffffffffffffffffff1673ffffffffffffffffffffffffffffffffffffffff1673ffffffffffffffffffffffffffffffffffffffff168152602001908152602001600020819055505b5b5b5b505b505050565b6000809054906101000a900473ffffffffffffffffffffffffffffffffffffffff1681565b6000809054906101000a900473ffffffffffffffffffffffffffffffffffffffff1673ffffffffffffffffffffffffffffffffffffffff163373ffffffffffffffffffffffffffffffffffffffff1614156113e55760046000600360009054906101000a900473ffffffffffffffffffffffffffffffffffffffff1673ffffffffffffffffffffffffffffffffffffffff1673ffffffffffffffffffffffffffffffffffffffff16815260200190815260200160002060008082016000905560018201600090556002820160006101000a81549060ff0219169055505060046000600160009054906101000a900473ffffffffffffffffffffffffffffffffffffffff1673ffffffffffffffffffffffffffffffffffffffff1673ffffffffffffffffffffffffffffffffffffffff16815260200190815260200160002060008082016000905560018201600090556002820160006101000a81549060ff0219169055505060046000600260009054906101000a900473ffffffffffffffffffffffffffffffffffffffff1673ffffffffffffffffffffffffffffffffffffffff1673ffffffffffffffffffffffffffffffffffffffff16815260200190815260200160002060008082016000905560018201600090556002820160006101000a81549060ff021916905550505b565b60008060009054906101000a900473ffffffffffffffffffffffffffffffffffffffff1673ffffffffffffffffffffffffffffffffffffffff163373ffffffffffffffffffffffffffffffffffffffff1614156114a55781600360006101000a81548173ffffffffffffffffffffffffffffffffffffffff021916908373ffffffffffffffffffffffffffffffffffffffff160217905550600360009054906101000a900473ffffffffffffffffffffffffffffffffffffffff1690505b919050565b600660205280600052604060002060009150905054815600a165627a7a72305820ddfed9d43f61072622596507f464562838d21957b3179f99467ff108fe3ef6be0029",
  "source": "pragma solidity ^0.4.24;\r\n\r\n\r\ncontract Betting {\r\n    /* Constructor function, where owner and outcomes are set */\r\n    constructor(uint[] _outcomes) public {\r\n        for (uint i = 0; i < _outcomes.length; i++){\r\n            outcomes[i] = _outcomes[i];\r\n        }\r\n        owner = msg.sender;\r\n    }\r\n\r\n    /* Fallback function */\r\n    function() public payable {\r\n        revert();\r\n    }\r\n\r\n    /* Standard state variables */\r\n    address public owner;\r\n    address public gamblerA;\r\n    address public gamblerB;\r\n    address public oracle;\r\n\r\n    /* Structs are custom data structures with self-defined parameters */\r\n    struct Bet {\r\n        uint outcome;\r\n        uint amount;\r\n        bool initialized;\r\n    }\r\n\r\n    /* Keep track of every gambler's bet */\r\n    mapping (address => Bet) bets;\r\n    /* Keep track of every player's winnings (if any) */\r\n    mapping (address => uint) winnings;\r\n    /* Keep track of all outcomes (maps index to numerical outcome) */\r\n    mapping (uint => uint) public outcomes;\r\n\r\n    /* Add any events you think are necessary */\r\n    event BetMade(address gambler);\r\n    event BetClosed();\r\n\r\n    /* Uh Oh, what are these? */\r\n    modifier ownerOnly() {\r\n        // assert(msg.sender == owner);\r\n        if (msg.sender == owner)\r\n        _;\r\n    }\r\n    modifier oracleOnly() {\r\n        if (msg.sender == oracle)\r\n        _;\r\n    }\r\n    modifier outcomeExists(uint outcome) {\r\n        if (outcomes[outcome] != 0)\r\n        _;\r\n    }\r\n\r\n    /* Owner chooses their trusted Oracle */\r\n    function chooseOracle(address _oracle) public ownerOnly() returns (address) {\r\n        oracle = _oracle;\r\n        return oracle;\r\n    }\r\n\r\n    /* Gamblers place their bets, preferably after calling checkOutcomes */\r\n    function makeBet(uint _outcome) public payable returns (bool) {\r\n        address gambler = msg.sender;\r\n\r\n        //condition\r\n        require(gambler != oracle && gambler != owner);\r\n        require(!bets[gambler].initialized);\r\n\r\n        //effect\r\n        bets[gambler].outcome = _outcome;\r\n        bets[gambler].amount = msg.value;\r\n        bets[gambler].initialized = true;\r\n        emit BetMade(gambler);\r\n\r\n        if (!bets[gamblerA].initialized)\r\n            gamblerA = gambler;\r\n        else{\r\n            gamblerB = gambler;\r\n            emit BetClosed();\r\n        }\r\n\r\n\r\n        return bets[gambler].initialized;\r\n    }\r\n\r\n    /* The oracle chooses which outcome wins */\r\n    function makeDecision(uint _outcome) public oracleOnly() outcomeExists(_outcome) {\r\n        require(bets[gamblerA].initialized && bets[gamblerB].initialized);\r\n        bets[oracle].outcome = _outcome;\r\n        uint amtA = bets[gamblerA].amount;\r\n        uint amtB = bets[gamblerB].amount;\r\n\r\n        if (bets[gamblerA].outcome == bets[gamblerB].outcome){\r\n            gamblerA.transfer(amtA);\r\n            gamblerB.transfer(amtB);\r\n        } else {\r\n            if (bets[gamblerA].outcome == outcomes[_outcome]){\r\n                if (bets[gamblerB].outcome == outcomes[_outcome]){\r\n                    winnings[gamblerA] = amtA;\r\n                    winnings[gamblerB] = amtB;\r\n                } else {\r\n                    winnings[gamblerA] = amtA + amtB;\r\n                }\r\n            } else {\r\n                if (bets[gamblerB].outcome == outcomes[_outcome]){\r\n                    winnings[gamblerB] = amtA + amtB;\r\n                } else {\r\n                    winnings[oracle] = amtA + amtB;\r\n                }\r\n            }\r\n        }\r\n    }\r\n\r\n    /* Allow anyone to withdraw their winnings safely (if they have enough) */\r\n    function withdraw(uint withdrawAmount) public returns (uint) {\r\n        require(winnings[msg.sender] > withdrawAmount);\r\n        msg.sender.transfer(withdrawAmount);\r\n        winnings[msg.sender] =- withdrawAmount;\r\n        return winnings[msg.sender];\r\n    }\r\n\r\n    /* Allow anyone to check the outcomes they can bet on */\r\n    function checkOutcomes(uint outcome) public view returns (uint) {\r\n        return outcomes[outcome];\r\n    }\r\n\r\n    /* Allow anyone to check if they won any bets */\r\n    function checkWinnings() public view returns(uint) {\r\n        return winnings[msg.sender];\r\n    }\r\n\r\n    /* Call delete() to reset certain state variables. Which ones? That's upto you to decide */\r\n    function contractReset() public ownerOnly() {\r\n\r\n        delete bets[oracle];\r\n        delete bets[gamblerA];\r\n        delete bets[gamblerB];\r\n    }\r\n}\r\n",
  "sourcePath": "C:\\Users\\phangjunyu\\Desktop\\sp18-lab02\\Betting Contract\\contracts\\betting.sol",
  "compiler": {
    "name": "solc",
    "version": "0.4.24+commit.e67f0147.Emscripten.clang"
  },
  "schemaVersion": "2.0.1",
  "updatedAt": "2018-07-01T18:29:47.204Z"
}